ARP, Request who-has 192.0.2.1 tell 192.0.2.100, length 44
	0x0000:  0001 0800 0604 0001 0001 0233 4400 c000
	0x0010:  0264 0000 0000 0000 c000 0201 0000 0000
	0x0020:  0000 0000 0000 0000 0000 0000
