ARP, Reply 192.0.2.100 is-at 00:01:02:33:44:00, length 44
	0x0000:  0001 0800 0604 0002 0001 0233 4400 c000
	0x0010:  0264 ffff ffff ffff c000 0265 0000 0000
	0x0020:  0000 0000 0000 0000 0000 0000
