IP 192.0.2.100 > 255.255.255.255: ICMP echo request, id 27006, seq 0, length 28
	0x0000:  4500 0030 697e 0000 4001 4eeb c000 0264
	0x0010:  ffff ffff 0800 113f 697e 0000 06f7 0000
	0x0020:  0000 0000 b25a f716 0000 0000 fabf d219
