ARP, Request who-has 192.0.2.101 (ff:ff:ff:ff:ff:ff) tell 192.0.2.100, length 44
	0x0000:  0001 0800 0604 0001 0001 0233 4400 c000
	0x0010:  0264 ffff ffff ffff c000 0265 0000 0000
	0x0020:  0000 0000 0000 0000 0000 0000
ARP, Reply 192.0.2.101 is-at 00:01:02:33:44:01, length 28
	0x0000:  0001 0800 0604 0002 0001 0233 4401 c000
	0x0010:  0265 0001 0233 4400 c000 0264
